{
    "contractName": "Upload",
    "abi": [
        {
            "inputs": [],
            "name": "getOwner",
            "outputs": [
                {
                    "internalType": "address",
                    "name": "",
                    "type": "address"
                }
            ],
            "stateMutability": "view",
            "type": "function"
        },
        {
            "inputs": [],
            "name": "owner",
            "outputs": [
                {
                    "internalType": "address",
                    "name": "",
                    "type": "address"
                }
            ],
            "stateMutability": "view",
            "type": "function"
        }
    ],
    "bytecode": "6080604052600080546001600160a01b03191633179055348015602157600080fd5b5060a8806100306000396000f3fe6080604052348015600f57600080fd5b506004361060325760003560e01c8063893d20e81460375780638da5cb5b146060575b600080fd5b6000546001600160a01b03165b6040516001600160a01b03909116815260200160405180910390f35b6000546044906001600160a01b03168156fea2646970667358221220a1fda5a03ff2898ffb3fdf7bd8587e8be7b538a5c47fec2ba1e656e3fd4898bf64736f6c63430008130033",
    "sourcePath": "c:/wamp64/www/alltrius/sharedoc.ai/wp-content/plugins/sharedoc-ai/contracts/Upload.sol",
    "compiler": {
        "name": "solc",
        "version": "0.8.19+commit.7dd6d404"
    },
    "functionHashes": {
        "getOwner()": "893d20e8",
        "owner()": "8da5cb5b"
    },
    "gasEstimates": {
        "creation": {
            "codeDepositCost": "33600",
            "executionCost": "24322",
            "totalCost": "57922"
        },
        "external": {
            "getOwner()": "2286",
            "owner()": "2325"
        }
    }
}